:03000000020C7F70
:0C0C7F00787FE4F6D8FD75812A020CC6CF
:100D0B002564002020002041444320303830382F08
:100D1B00303830392020002020496E7465726661AE
:100D2B0063696E6720202000434C4153532053547A
:0C0D3B0052454E475448002530336400F8
:040E28000229001487
:060D9700D2A17F017E00E5
:100D9D00E4FDFCC3ED9FEC9E5015E4FBFA0BBB008C
:0F0DAD00010ABA04F8BBFBF50DBD00010C80E490
:010DBC002214
:080E1800D2A0120D97C2A12225
:100DF200A907E954F0F590120E18E9C454F0F590E1
:030E0200020E18C5
:080E2000C2A0120D97C2A1222D
:100E0500A907E954F0F590120E20E9C454F0F590C5
:030E1500020E20AA
:060D47007B007A00792315
:100D4D008B0B8A0C890DAB0BAA0CA90D120BF1FFA5
:100D5D006010120DF27401250DF50DE4350CF50C36
:030D6D0080E422FD
:100DDE007F02120E057F28120E057F0E120E057F62
:040DEE0001020E05EB
:100DBD00750EFF750F0D75100B8522117B007A00D6
:100DCD00792312085C120D477BFF7A0D790E020D07
:010DDD004DC8
:100B5C00E4F508F509F50A75A0FFD2A5C2A3C2A455
:100B6C00C2A2120DDE7BFF7A0D7911120D4D7FC0E2
:100B7C00120E057BFF7A0D7922120D4DC292C29195
:100B8C00C2907F0A7E00120D9DD2A3120D9DD2A29F
:100B9C00120D9DC2A3C2A220A5FDD2A47F0A7E0085
:100BAC00120D9D85B022852280120D9DC2A47FC896
:100BBC00120D9D7F01120E057F80120E057BFF7AB0
:100BCC000D7933120D4D7FC0120E05750EFF750F8A
:100BDC000D7510428522117B007A00792312085C76
:050BEC00120D47809787
:100C8B00020B5CE493A3F8E493A34003F68001F218
:100C9B0008DFF48029E493A3F85407240CC8C3336A
:100CAB00C4540F4420C8834004F456800146F6DF39
:100CBB00E4800B0102040810204080900E28E47E93
:100CCB00019360BCA3FF543F30E509541FFEE4932E
:100CDB00A360010ECF54C025E060A840B8E493A3F5
:100CEB00FAE493A3F8E493A3C8C582C8CAC583CA20
:100CFB00F0A3C8C582C8CAC583CADFE9DEE780BED8
:010E2C0000C5
:100BF100BB010689828A83E0225002E722BBFE0202
:090C0100E32289828A83E4932234
:10080000E51A240EF8E6051A22780B300702780E56
:10081000E475F001120C49020BF12000EB7F2ED29F
:10082000008018EF540F2490D43440D4FF30040BD0
:10083000EF24BFB41A0050032461FFE51B600215CA
:100840001B051EE51E7002051D30070D780BE475B3
:10085000F001120C49EF020C37020D707403D2073D
:100860008003E4C207F51A8B0B8A0C890DE4F51B93
:10087000F51DF51EE51B60077F2012083B80F5750E
:100880001CFFC201C200C202C203C205C206C208E6
:10089000120809FF700D3007057F0012084CAF1ECB
:1008A000AE1D22B4255FC2D5C204120809FF24D0B0
:1008B000B40A00501A75F00A781B30D50508B6FF47
:1008C0000106C6A426F620D5047002D20380D924DE
:1008D000CFB41A00EF5004C2E5D204020A4CD20190
:1008E00080C6D20080C0D20280BCD2D580BAD205E8
:1008F00080B47F2012083B2002077401B51B004022
:10090000F1120800FF12083B020874D208D20680D8
:1009100095120800FB120800FA120800F94A4B7001
:1009200006791D7A0B7BFF20022EE51B602A7E00D4
:100930008E82758300120C0A60060EEE651C70F044
:10094000C2D5EBC0E0EAC0E0E9C0E0EE120A93D005
:10095000E0F9D0E0FAD0E0FB120BF1FF60AAEBC0A7
:10096000E0EAC0E0E9C0E012083BD0E02401F9D0A1
:10097000E03400FAD0E0FBE51C0460DCD51CD98033
:10098000877BFF7A0A798FD202809C791080027966
:1009900008C206C2088008D2D5790A8004790AC242
:1009A000D5E51C047002F51CE4FAFDFEFF120800F8
:1009B000FC7B08200113120800FD7B1030000A1296
:1009C0000800FE120800FF7B20EC3382D592D55040
:1009D00013C3E43000069FFFE49EFEE42001039D64
:1009E000FDE49CFCE4CBF8C201EC700CCFCECDCC86
:1009F000E824F8F870F38017C3EF33FFEE33FEED11
:100A000033FDEC33FCEB33FB994002FB0FD8E9EBF1
:100A1000300105F8D0E0C448B201C0E00AEC4D4E08
:100A20004F78207B0070C2EAB51C0040BCC0E012C9
:100A30000A95D0F0D0E0200104C4C0E0C4B201C0E7
:100A4000F0120824D0F0D5F0EB020874120C59090A
:100A50001153098B5808E24C08DE42098F4F099761
:0F0A60004409974908F743099D550981460981C3
:100A6F00450981470B3D5008E62D08EA2E090D2B4D
:100A7F0008EE23090B200B262A08A64800000905BB
:100A8F003F3F3F00790AA2D5200314300509B91062
:100A9F00020404B9080104A2D52006025001042063
:100AAF0002689202B51B005034C0E07F203003195A
:100ABF007F30A20272067205500F120AECC202C2F8
:100ACF0006C205C2087F30800F300503E9C0E0126F
:100ADF00083B300503D0E0F9D0E0B51BCC3005174B
:100AEF007F30B9100C12083B7F583004077F788095
:100AFF0003B9080312083B3002057F2D02083B7F24
:100B0F00202008F87F2B2006F322920280CF286E38
:100B1F00756C6C2900D2011208003001F8C20178FF
:100B2F001B30D50108F60208A62D5043495812086C
:100B3F00002403B405004001E4900B389312082CF5
:0D0B4F00743A12082CD203751B0402098BA6
:100C0A00BB010CE58229F582E5833AF583E022509F
:100C1A0006E92582F8E622BBFE06E92582F8E222E9
:0D0C2A00E58229F582E5833AF583E4932203
:100C3700BB010689828A83F0225002F722BBFE019C
:020C4700F32296
:100C4900FAE6FB0808E6F925F0F618E6CA3AF622AC
:100C5900D083D082F8E4937012740193700DA3A32A
:100C690093F8740193F5828883E47374029368603E
:060C7900EFA3A3A380DF3E
:100D7000EFB40A07740D120D7B740A309811A8990C
:100D8000B8130CC2983098FDA899C298B811F630E3
:070D900099FDC299F59922BB
:00000001FF
